:020000040800F2
:10000000A0060020750200087D0200087F0200089B
:100010008102000883020008850200080000000039
:10002000000000000000000000000000870200083F
:1000300089020008000000008B0200088D02000801
:100040008F0200088F0200088F0200088F0200084C
:100050008F0200088F0200088F0200088F0200083C
:100060008F0200088F0200088F0200088F0200082C
:100070008F0200088F0200088F0200088F0200081C
:100080008F0200088F0200088F0200088F0200080C
:100090008F0200088F0200088F0200088F020008FC
:1000A0008F0200088F0200088F0200088F020008EC
:1000B0008F0200088F0200088F0200088F020008DC
:1000C0008F0200088F0200088F0200088F020008CC
:1000D0008F0200088F0200088F0200088F020008BC
:1000E0008F0200088F0200088F0200088F020008AC
:1000F0008F0200088F0200088F0200088F0200089C
:100100008F0200088F0200088F0200088F0200088B
:100110008F0200088F0200088F0200088F0200087B
:100120008F0200088F0200088F0200088F0200086B
:100130008F02000800000000000000008F0200088D
:100140008F0200088F0200088F0200088F0200084B
:100150008F0200088F0200088F0200088F0200083B
:100160008F0200088F0200088F0200088F0200082B
:100170008F0200088F0200088F02000800000000B4
:10018000000000008F0200080000000000000000D6
:100190008F02000800000000000000008F0200082D
:1001A0000000000000000000000000008F020008B6
:1001B0008F0200088F0200088F0200088F020008DB
:1001C0008F02000800F002F800F044F814A696E848
:1001D000000CB244B344DA4501D100F03BF8BAE870
:1001E0000F000FA696E83000A5EB040504EB060708
:1001F000AAEB0704A7F101074FEA15154FEA3414DB
:10020000A4F10104AC4201D300F024F813F0010F73
:1002100018BFFB1A43F0010300F001F8DBE71847B1
:10022000A4020000B4020000704700000023002474
:1002300000250026103A28BF78C1FBD8520728BFF6
:1002400030C148BF0B6070471FB500F02DF91FBDCE
:1002500010B510BD00F031F81146FFF7F5FF00F0C2
:10026000F5F800F04FF803B4FFF7F2FF03BC00F01D
:1002700057F800000948804709480047FEE7FEE7B5
:10028000FEE7FEE7FEE7FEE7FEE7FEE7FEE7FEE746
:1002900004480549054A064B70470000F103000871
:1002A000C5010008A0000020A0060020A002002038
:1002B000A0020020704770477047754600F02CF888
:1002C000AE4605006946534620F00700854618B043
:1002D00020B5FFF7DDFFBDE820404FF000064FF0EE
:1002E00000074FF000084FF0000BAC46ACE8C00927
:1002F000ACE8C009ACE8C009ACE8C00921F00701CE
:100300008D46704710B50446AFF300802046BDE827
:100310001040FFF7A8BF0000004870470000002011
:1003200001491820ABBEFEE726000200704700001E
:1003300043F63001C4F20201086840F4001008607E
:1003400046F29001C4F20201086820F00100086042
:100350000020086046F29802C4F2020244F204400F
:10036000C4F20000106040F26000C2F2000046F2E9
:100370009C02C4F20202106046F29402C4F202022D
:1003800040201060086840F000600860086840F491
:1003900080600860086840F480700860086840F475
:1003A00080300860086840F0010008607047000075
:1003B00043F63001C4F20201086840F00100086011
:1003C0000021C4F20201086820F0F000086008680B
:1003D00040F0A00008602021C4F20201086820F467
:1003E0007F400860086840F4EE40086070470000F5
:1003F0004EF68851CEF20001086840F470000860A3
:100400007047000043F64001C4F20201086840F45E
:100410000030086044F20841C4F2000140F28260FA
:10042000086044F21441C4F20001086840F0400042
:10043000086044F20C41C4F20001086840F00C006E
:100440000860086840F400500860704780B582B0CA
:1004500000200190FFF7ACFFFFF7D4FFFFF768FF24
:10046000FFE700200090FFE700983F281BDCFFE734
:10047000FFE744F20040C4F20000006800060028D4
:1004800001D4FFE7F5E7009940F26000C2F20000F6
:10049000405C44F20441C4F200010860FFE70098A8
:1004A00001300090E0E7DCE7F1EE100A4FF6FF7153
:1004B000C0F2C03120EA010040F04070E1EE100AC5
:1004C00070470000D404000800000020A0060000CF
:0404D0002C020008F2
:040000050800027578
:00000001FF
